:100000000C9434000C9451000C9451000C94510049
:100010000C9451000C9451000C9451000C9451001C
:100020000C9451000C9451000C9451000C9451000C
:100030000C9451000C94A6010C9451000C945100A6
:100040000C9451000C9451000C9451000C945100EC
:100050000C9451000C9451000C9451000C945100DC
:100060000C9451000C94510011241FBECFEFD8E026
:10007000DEBFCDBF13E0A0E0B1E0E8E3F9E202C0EB
:1000800005900D92A23AB107D9F714E0A2EAB3E0C5
:1000900001C01D92A836B107E1F70E9444060C94F6
:1000A0009A140C940000BC018091B9008E7F80935B
:1000B000B9008091B9008D7F8093B90080EA9FE0FC
:1000C0000E94FF13603130F0862F90E040979595A5
:1000D0008795682F6093B800089580E991E00E94A9
:1000E0005300ECEBF0E080818460808308953C9ABB
:1000F00084EA8093BC00089584E98093BC0008954D
:10010000882329F08091BC008F70806C04C080919E
:10011000BC008F7080688093BC0008958091BB0004
:1001200008958091B9000895F999FECF92BD81BDDF
:1001300060BDFA9AF99A0895F999FECF92BD81BDF2
:10014000F89A80B508951092B8031092B9031092EE
:10015000BA031092BB038FEF84B987B98AB987B10C
:100160008E7387B952981092C50083E38093C400C0
:1001700088E18093C100E0ECF0E080818D7F808396
:1001800086E893E0909365048093640482E085BDE3
:100190008093810081E080936F0087E880937A00EC
:1001A00080E480937C000E946D0080E388B978949D
:1001B0000895F999FECF12BC81BDF89A20B590E060
:1001C0000196F999FECF92BD81BDF89A40B530E015
:1001D000942F80E0282B392BC901089588E20E94D2
:1001E000D9009093BD038093BC030895F999FECF85
:1001F00012BC81BD60BDFA9AF99A90E00196F99916
:10020000FECF92BD81BD70BDFA9AF99A08959C0106
:1002100081E006C085BB16BCA89BFECF20503140B4
:1002200091E021303907B0F781E085BB822F8195BD
:1002300086BDA89BFECF0895CF93DF93EC0111C03C
:100240008AEF90E00E9407018AEF90E00E94070188
:100250008AEF90E00E9407018AEF90E00E94070178
:100260002197209769F7DF91CF91089590917C00B5
:10027000907F90937C0090917C008F70892B80936D
:100280007C0081E090E00E941C0130E060E070E0C2
:1002900080917A00806580937A0080917A0084FF53
:1002A000FCCF8091780090E020917900522F40E0BF
:1002B000842B952B680F791F3F5F343049F79B01E2
:1002C0003695279536952795C90108951F93182FC0
:1002D00081E090E00E941C013C9A1093BB0084E8EE
:1002E0008093BC001F9108951F93182F8A3019F432
:1002F0008DE00E9474018091C00085FFFCCF1093B7
:10030000C60080E090E01F910895CF93DF93C0E096
:10031000D0E00BC08BE0C93BD80711F48FEF0BC0C6
:10032000219681E090E00E941C018091C00087FF2F
:10033000F1CF8091C600DF91CF910895982F8091E1
:10034000C00085FFFCCF9093C60008951F920F92C6
:100350000FB60F9211248F939F93AF93BF9387E1B2
:100360009CEF90938500809384008091B8039091D6
:10037000B903A091BA03B091BB030196A11DB11DB1
:100380008093B8039093B903A093BA03B093BB03CF
:10039000BF91AF919F918F910F900FBE0F901F90C3
:1003A000189580E00E943601A0E0B0E0BC01CD01CC
:1003B0002AE431E040E050E00E94E0135AE09595D5
:1003C0008795779567955A95D1F76253704080402D
:1003D000904022E030E040E050E00E944814C90123
:1003E00008952F923F924F925F926F927F928F92D9
:1003F0009F92AF92BF92CF92DF92EF92FF920F93B4
:100400001F93DF93CF93CDB7DEB764970FB6F89401
:10041000DEBF0FBECDBF1F82188619861A861B86C7
:100420001C861D861E860E94A70D0E941D0D5B9ACC
:100430000E94CF0C5C9A992485B120E2822785B96D
:100440005E985F98AA2482E30E94BD0D6C0184E34C
:100450000E94BD0D7C0186E30E94BD0D8C01CE0182
:100460000196BE016D5F7F4FAE014B5F5F4F0E94F3
:100470004B0D8DB79EB708970FB6F8949EBF0FBE71
:100480008DBFEDB7FEB7319620E031E0ADB7BEB716
:1004900012963C932E931197D382C282F582E48206
:1004A000178306830E941211EDB7FEB731962DE037
:1004B00031E0ADB7BEB712963C932E931197898168
:1004C0009A81938382838B819C81958384838D81A0
:1004D0009E81978386830E9412118DB79EB70896DE
:1004E0000FB6F8949EBF0FBE8DBF8CE090E00E94C7
:1004F0001C01A3949AE0A91609F0A5CF00D000D062
:1005000000D0E6E1F1E0ADB7BEB71296FC93EE93F2
:1005100011978091B8039091B903A091BA03B0915B
:10052000BB03EDB7FEB783839483A583B6830E9494
:1005300012112DB73EB72A5F3F4F0FB6F8943EBF5A
:100540000FBE2DBF83E090E00E941C010E942E0F81
:100550000E94F70D0E94870E9C8B8B8B0E948D0E44
:100560001C010E94930E9A8B898B0E94990E988B86
:100570008F870E947B0E882E0E947E0E182F0E946D
:10058000810E2C0100D000D000D0EDB7FEB731961F
:100590002CE131E0ADB7BEB712963C932E93119784
:1005A0008B899C8993838283358224820E941211D5
:1005B000EDB7FEB7319627E231E0ADB7BEB7129680
:1005C0003C932E93119789899A8993838283AF856F
:1005D000B889B583A4830E94121100D0EDB7FEB78D
:1005E000319622E331E0ADB7BEB712963C932E931D
:1005F00011975382428284821582168317820E9449
:1006000012118DB79EB708960FB6F8949EBF0FBE15
:100610008DBF82E00E94570A3C0181E00E94570A88
:1006200000D000D000D0EDB7FEB731962CE331E01A
:10063000ADB7BEB712963C932E9311977382628228
:10064000958384830E9412118DB79EB706960FB6CC
:10065000F8949EBF0FBE8DBF0E94D10100D000D084
:10066000E3E4F1E0ADB7BEB71296FC93EE931197B9
:1006700014969C938E9313970E9412110F900F90D3
:100680000F900F9086E00E9436015C01CC24DD249F
:100690008EE00E9436017C01C601B5012EE630E0F5
:1006A00040E050E00E94E01300E010E0A801970154
:1006B0000E944814C901DA01880F991FAA1FBB1FA5
:1006C0008C0100D000D0ADB7BEB7119623E431E065
:1006D000EDB7FEB73283218313969C938E931297C6
:1006E0000E9412110F900F900F900F90CE0107965D
:1006F000BE01655F7F4F0E941A0B00D000D000D072
:10070000E7E4F1E0ADB7BEB71296FC93EE93119714
:100710008F819885A985BA85EDB7FEB783839483C9
:10072000A583B6830E941211E7E4F1E0ADB7BEB72E
:100730001296FC93EE9311978B859C85AD85BE85B3
:10074000EDB7FEB783839483A583B6830E9412110D
:100750002DB73EB72A5F3F4F0FB6F8943EBF0FBE8E
:100760002DBF8AE290E00E94271183E090E00E9472
:100770001C015E985F9A939433E0391510F4992424
:1007800002C09920F1F400D000D000D0EDB7FEB740
:1007900031962CE431E0ADB7BEB712963C932E9360
:1007A00011978B899C8993838283358224820E944E
:1007B0001211ADB7BEB716960FB6F894BEBF0FBEF6
:1007C000ADBFB1E09B1609F500D000D000D0EDB769
:1007D000FEB7319627E531E0ADB7BEB712963C9330
:1007E0002E93119789899A8993838283AF85B889DB
:1007F000B583A4830E941211EDB7FEB736960FB6EB
:10080000F894FEBF0FBEEDBF48C0F2E09F16D9F4CA
:100810002DB73EB7285030400FB6F8943EBF0FBEFC
:100820002DBFEDB7FEB7319622E631E0ADB7BEB7CA
:1008300012963C932E9311975382428284821582A2
:100840001783068320C093E0991639F50E941D0D89
:10085000ADB7BEB718970FB6F894BEBF0FBEADBF09
:10086000EDB7FEB731962CE631E012963C932E930D
:100870001197738262828B859C85AD85BE8584834A
:100880009583A683B7830E9412118DB79EB70896F1
:100890000FB6F8949EBF0FBE8DBF00E010E08091B0
:1008A000C00087FF04C08091C600883759F081E0FE
:1008B00090E00E941C010F5F1F4F0A3F110509F4D1
:1008C000BBCDEDCF64960FB6F894DEBF0FBECDBFA3
:1008D000CF91DF911F910F91FF90EF90DF90CF901C
:1008E000BF90AF909F908F907F906F905F904F9050
:1008F0003F902F9008950F931F9384E791E00E94FB
:100900002E110E942E0F882309F47DC00E94930EA1
:1009100000D000D026E731E0ADB7BEB712963C93C9
:100920002E93119714969C938E9313970E941211F5
:100930000F900F900F900F900E94990E00D000D052
:100940000FE711E0EDB7FEB7128301839483838331
:100950000E9412110F900F900F900F900E94870E1F
:1009600000D000D025E831E0ADB7BEB712963C9379
:100970002E93119714969C938E9313970E941211A5
:100980000F900F900F900F900E948D0E00D000D00E
:10099000EDB7FEB712830183948383830E94121103
:1009A0000F900F900F900F900E947E0E00D000D0FD
:1009B000EDB7FEB731962EE831E0ADB7BEB712966F
:1009C0003C932E931197828313820E9412110F90F1
:1009D0000F900F900F900E947B0E00D000D0EDB7CB
:1009E000FEB7319628E931E0ADB7BEB712963C9319
:1009F0002E931197828313820E9412110F900F90F1
:100A00000F900F900BC000D082EA91E0EDB7FEB7D7
:100A1000928381830E9412110F900F908AE090E0E0
:100A20000E9427111F910F91089520E030E002C02D
:100A30002F5F3F4F8091BC0087FF04C029353105EF
:100A400044F003C02A35310599F78AEA91E00E9403
:100A50002E110895CF92DF92EF92FF920F931F9382
:100A6000082FC62E3C9AACEBEA2EF12CF4EADF2ECE
:100A7000F701D0820E94150510E0000F111F802F92
:100A80000E9466010E9415058C2D0E9466010E943D
:100A900015053C9AF701D082802F81600E94660183
:100AA0000E941505F70180818F70806C80830E9401
:100AB00015057BEBC72ED12CF60100810E94150590
:100AC000F70180818F70806880830E941505F60190
:100AD000D0800E94150584E9F70180839D2D80E078
:100AE00010E0082B192BC8011F910F91FF90EF9078
:100AF000DF90CF900895DF92EF92FF920F931F93B4
:100B0000CF93DF93EC01162F60E070E0412F50E0AF
:100B10000E94031100E0E12EFF240894E108F1088F
:100B200018E0B0E2DB2E34C00E948501982F883097
:100B300011F08F37D1F4002359F10150FE01E00F7D
:100B4000F11D10828091C00085FFFCCF1093C6007C
:100B50008091C00085FFFCCFD092C6008091C0007C
:100B600085FFFCCF1093C60013C08091C00085FFA5
:100B7000FCCF9093C6009A3011F09D3021F4C00F45
:100B8000D11D18820AC0FE01E00FF11D90830F5F96
:100B9000802F90E08E159F053CF2802FDF91CF9142
:100BA0001F910F91FF90EF90DF900895FF920F93A8
:100BB0001F93DF93CF93CDB7DEB768970FB6F89446
:100BC000DEBF0FBECDBFF62E00D000D02DEB31E042
:100BD000EDB7FEB732832183948383830E94121181
:100BE0000F900F900F900F908E010F5F1F4FC80155
:100BF00068E10E947B05C8010E94E510BC018F2DB1
:100C00000E94F60068960FB6F894DEBF0FBECDBF07
:100C1000CF91DF911F910F91FF900895CF93DF93B4
:100C200084E791E00E942E11C2ECD1E00E94EE0018
:100C300000D000D0EDB7FEB7D283C1838091BC0352
:100C40009091BD03948383830E9412110F900F90A3
:100C50000F900F9089ED91E00E942E118AE090E0B4
:100C60000E9427110E948501883759F08133F1F6DF
:100C70008091BC039091BD0368E270E00E94D605AC
:100C8000D5CFDF91CF9108952F923F924F925F92EF
:100C90006F927F928F929F92AF92BF92CF92DF928C
:100CA000EF92FF920F931F93DF93CF93CDB7DEB7F1
:100CB0002E970FB6F894DEBF0FBECDBF0E94A300E3
:100CC0000E94EE0081EE91E00E942E11FBEB2F2E90
:100CD000F2E03F2E00D0EBEFF1E0ADB7BEB71296D9
:100CE000FC93EE9311970E94121184E092E0ADB74D
:100CF000BEB712969C938E9311970E94121181E1B8
:100D000092E0EDB7FEB7928381830E9412118AE1CF
:100D100092E0ADB7BEB712969C938E9311970E9446
:100D200012118AE292E0EDB7FEB7928381830E94AE
:100D3000121187E392E0ADB7BEB712969C938E93E3
:100D400011970E94121184E492E0EDB7FEB79283EE
:100D500081830E9412118AE592E0ADB7BEB7129668
:100D60009C938E9311970E94121189E692E0EDB741
:100D7000FEB7928381830E9412118CE792E0ADB797
:100D8000BEB712969C938E9311970E9412118EE813
:100D900092E0EDB7FEB7928381830E9412110F900B
:100DA0000F900E948501282F30E02A37310519F471
:100DB0000E947B0476C32D36310591F500D000D01A
:100DC00000D0E1E9F2E0ADB7BEB71296FC93EE9326
:100DD00011978091B8039091B903A091BA03B09193
:100DE000BB03EDB7FEB783839483A583B6830E94CC
:100DF00012118091C0002DB73EB72A5F3F4F0FB64A
:100E0000F8943EBF0FBE2DBF87FF05C08091C6007E
:100E1000883709F446C388EE93E00E941C01CECFC8
:100E200024373105E1F582E00E94570A8C0181E008
:100E30000E94570A7C0100D000D0E3EAF2E0ADB78F
:100E4000BEB71296FC93EE93119714961C930E93D3
:100E500013970E941211EAEAF2E0ADB7BEB71296FC
:100E6000FC93EE9311971496FC92EE9213970E94C6
:100E700012110F900F900F900F908AE090E00E9457
:100E800027118091C00087FF05C08091C600883778
:100E900009F407C384E690E00E941C01C4CF2937FF
:100EA000310509F06EC080E00E9436017C018EE0C1
:100EB0000E9436016C0100D000D0E1EBF2E0ADB74A
:100EC000BEB71296FC93EE9311971496FC92EE9295
:100ED00013970E941211ADB7BEB712963C922E9294
:100EE00011971496DC92CE9213970E94121100E093
:100EF00010E0C801B7012CEE31E040E050E00E9464
:100F0000E0137B018C01EAE015950795F794E794CF
:100F1000EA95D1F700D024EC32E0EDB7FEB732838A
:100F20002183ADB7BEB71396ED92FD920D931C933E
:100F300016970E9412110F900F902EEC32E0EDB731
:100F4000FEB7328321838FEE9EEFE80EF91EF48206
:100F5000E3820E9412110F900F900F900F908AE081
:100F600090E00E9427118091C00087FF05C080910A
:100F7000C600883709F495C282E390E00E941C0104
:100F800092CF2236310509F05BC086E00E9436011F
:100F90007C0100E010E08EE00E9436016C0100D080
:100FA00000D000D0E7EDF2E0ADB7BEB71296FC93EB
:100FB000EE9311971396ED92FD920D931C93169755
:100FC0000E941211C801B7012EE630E040E050E067
:100FD0000E94E013960140E050E00E94481479011D
:100FE0008A010F900F90EDB7FEB732822182D48232
:100FF000C3820E941211EDB7FEB7319620EE32E0A7
:10100000ADB7BEB712963C932E931197EE0CFF1C12
:10101000001F111FF382E2820E9412118091C00012
:101020000F900F900F900F9087FF05C08091C60022
:10103000883709F436C282E390E00E941C01A5CFF4
:101040002C36310529F587E00E94360100D000D00A
:10105000EFEEF2E0ADB7BEB71296FC93EE931197A8
:1010600014969C938E9313970E9412118091C00046
:101070000F900F900F900F9087FF05C08091C600D2
:10108000883709F40EC282E390E00E941C01DBCF96
:101090002037310509F07DC01F82188619861A860F
:1010A0001B861C861D861E865B9A0E946D0084E648
:1010B00090E00E941C010E94CF0C67E0A62EB12C8C
:1010C000AC0EBD1E5BE0852E912C8C0E9D1E4FEF4D
:1010D000C42E42E0D42E3AE0E32E33E0F32E01E1B9
:1010E00013E0C501B4010E941A0B00D000D000D05B
:1010F000ADB7BEB71296DC92CE9211978091B8032D
:101100009091B903A091BA03B091BB03EDB7FEB7BC
:1011100083839483A583B6830E941211ADB7BEB7B3
:101120001296FC92EE9211978F819885A985BA85C7
:10113000EDB7FEB783839483A583B6830E94121113
:10114000ADB7BEB712961C930E9311978B859C85F5
:10115000AD85BE85EDB7FEB783839483A583B68343
:101160000E9412118091C0002DB73EB72A5F3F4FF9
:101170000FB6F8943EBF0FBE2DBF87FF05C080910C
:10118000C600883709F48DC184EF91E00E941C01EC
:10119000A8CF2136310509F064C00E94A70D00E0F8
:1011A00010E088249924EE24FF24CC2428E1A22EE8
:1011B00023E0B22E19C082E30E94BD0D080F191F53
:1011C00084E30E94BD0D880E991E86E30E94BD0D2A
:1011D000E80EF91EC39408C000E010E088249924AA
:1011E000EE24FF24CC24E7CF33E03C1520F78DB765
:1011F0009EB708970FB6F8949EBF0FBE8DBFEDB790
:10120000FEB73196ADB7BEB71296BC92AE921197AB
:10121000C80164E070E00E94131473836283C40108
:1012200064E070E00E94131475836483C70164E076
:1012300070E00E941314778366830E9412118091DC
:10124000C000EDB7FEB738960FB6F894FEBF0FBEDC
:10125000EDBF87FFC1CF8091C600883709F0BCCFB2
:1012600020C12836310521F50E94D10100D000D0DF
:10127000E0E3F3E0ADB7BEB71296FC93EE9311979F
:1012800014969C938E9313970E9412118091C00024
:101290000F900F900F900F9087FF05C08091C600B0
:1012A000883709F4FEC08AEF90E00E941C01DCCF71
:1012B0002336310509F079C00E941D0D8824992438
:1012C000EE24FF24CC24DD2400E010E093E0492E3E
:1012D000512C4C0E5D1E85E0682E712C6C0E7D1E0F
:1012E0005E010894A11CB11C20C0C501B201A3017C
:1012F0000E944B0D89819A81880E991E8B819C8159
:10130000E80EF91E8D819E81C80ED91E84E190E001
:101310000E941C010F5F1F4F08C088249924EE24EF
:10132000FF24CC24DD2400E010E004301105ECF2B1
:101330002DB73EB7285030400FB6F8943EBF0FBED1
:101340002DBFEDB7FEB731962DE333E0ADB7BEB795
:1013500012963C932E931197C40164E070E00E94B2
:10136000131473836283C70164E070E00E94131456
:1013700075836483C60164E070E00E941314778370
:1013800066830E9412118091C000ADB7BEB7189657
:101390000FB6F894BEBF0FBEADBF87FFBECF809122
:1013A000C600883709F0B9CF7CC02736310509F06F
:1013B00055C00E942E0F0E94F70D0E94870E7C01DF
:1013C0000E948D0E8C010E94930E5C010E94990E6A
:1013D0006C010E947B0E982E0E947E0E882E00D0FB
:1013E00000D000D0EDB7FEB7319682E593E0ADB7FF
:1013F000BEB712969C938E931197F382E282158367
:1014000004830E941211EDB7FEB7319682E693E095
:10141000ADB7BEB712969C938E931197B382A282FA
:10142000D582C4820E941211EDB7FEB7319681E7D2
:1014300093E0ADB7BEB712969C938E9311979282AC
:101440001382848215820E941211EDB7FEB7369680
:101450000FB6F894FEBF0FBEEDBF23C02632310594
:1014600019F02F3F310519F40E94F1011AC02337FA
:10147000310519F40E940E0614C000D000D082E895
:1014800093E0ADB7BEB712969C938E9311971496C6
:101490003C932E9313970E9412110F900F900F9070
:1014A0000F901D9B02C02D9815CC2D9A13CC0F9335
:1014B0001F93182F0E9477000E941505113011F418
:1014C00080E903C0123019F482E90E9466010E948B
:1014D000150580E00E9466010E9415050E947700B4
:1014E000113011F481E903C0123019F483E90E942C
:1014F00066010E9415058FEF0E9480000E9415056D
:101500000E948E00082F0E94150580E00E94800036
:101510000E9415050E948E00182F0E9415050E943A
:101520007C00902F80E0212F30E0282B392B84E0A5
:10153000359527958A95E1F733FD386FC90160E14C
:1015400070E00E941314CB011F910F910895FF9238
:101550000F931F93182F0E9477000E9415058EEE9F
:101560000E9466010E941505812F0E9466010E945B
:1015700015050E9477008FEE0E9466010E941505F6
:101580008FEF0E9480000E9415050E948E00F82EA9
:101590000E94150580E00E9480000E9415050E94AF
:1015A0008E00082F0E9415050E947C009F2D80E070
:1015B00010E0082B192BC8011F910F91FF9008957F
:1015C0000E9477000E9415058EEE0E9466010E941F
:1015D000150584EF0E9466010E94150584E30E94B0
:1015E00066010E9415050E947C004A9BFECF86EF93
:1015F0000E94A70A40E050E0BC01CA0108950E9481
:1016000077000E9415058EEE0E9466010E94150566
:1016100084EF0E9466010E9415058EE20E94660119
:101620000E9415050E947C004A9BFECF86EF0E9417
:10163000A70A08952F923F924F925F926F927F92E6
:101640008F929F92AF92BF92CF92DF92EF92FF92D2
:101650000F931F93DF93CF9300D000D000D0CDB76E
:10166000DEB74C017E836D830E94FF0A7C010E94DD
:10167000E00A1B012C0100E010E08091AC03909186
:10168000AD03A0E0B0E0E81AF90A0A0B1B0B2091A9
:10169000AE033091AF0340E050E0C801B7010E94B3
:1016A000E0137B018C01FFE015950795F794E79413
:1016B000FA95D1F76091B6037091B703882777FD4B
:1016C0008095982FEBE0660F771F881F991FEA958A
:1016D000D1F72091B2033091B303442737FD4095F1
:1016E000542F2E0D3F1D401F511F0E9448145901B9
:1016F0006A01AE0CBF1CC01ED11E88E090E0A0E0C5
:10170000B0E0A80EB91ECA1EDB1ED601C50154E00A
:10171000B595A795979587955A95D1F7F40180834C
:101720009183A283B38388E590EFAFEFBFEFA80E5C
:10173000B91ECA1EDB1EC601B501A60195010E9495
:10174000E0133B014C014CE09594879477946794A7
:101750004A95D1F72091BE033091BF03442737FD4E
:101760004095542FC601B5010E94E0137B018C0106
:101770003DE015950795F794E7943A95D1F782E007
:1017800090E0A0E0B0E0E80EF91E0A1F1B1F2091B8
:10179000AA033091AB03442737FD4095542FC40171
:1017A000B3010E94E013BC01992777FD9095892F22
:1017B000E60EF71E081F191F82E015950795F7948E
:1017C000E7948A95D1F780E090E8A0E0B0E0E80ED9
:1017D000F91E0A1F1B1F2091B4033091B50340E08E
:1017E00050E0C801B7010E94E013DC01CB011FE00B
:1017F000B695A795979587951A95D1F789839A837A
:10180000AB83BC83E090A803F090A9030027F7FC0A
:101810000095102FB2E0EE0CFF1C001F111FBA95AF
:10182000D1F782E090E0A0E0B0E0E80EF91E0A1FD8
:101830001B1F2091B0033091B103442737FD409521
:10184000542FC601B5010E94E013ABE09595879532
:1018500077956795AA95D1F7E60EF71E081F191F11
:101860002091A4033091A503442737FD4095542FC0
:10187000C401B3010E94E013FBE09595879577952D
:101880006795FA95D1F7E60EF71E081F191FC801D4
:10189000B70124E030E040E050E00E944814221AF2
:1018A000330A440A550AC201B10120E533EC40E095
:1018B00050E00E94E01397FD0FC0660F771F881F4E
:1018C000991F29813A814B815C810E942614C901AC
:1018D000DA015C016D010CC029813A814B815C8188
:1018E0000E94261459016A01AA0CBB1CCC1CDD1CE9
:1018F0005527D7FC5A954D2D3C2D2B2DCA01B901EA
:101900000E94E0132EED3BE040E050E00E94E01327
:101910007B018C01C601B50123E433EE4FEF5FEF8D
:101920000E94E013BC01992777FD9095892F6153A0
:10193000714F8F4F9F4F78011127F7FC1095012FA2
:101940006E0D7F1D801F911F24E0959587957795DB
:1019500067952A95D1F76A0D7B1D8C1D9D1DAD8164
:10196000BE816D937D938D939C93139726960FB6AE
:10197000F894DEBF0FBECDBFCF91DF911F910F91C5
:10198000FF90EF90DF90CF90BF90AF909F908F909F
:101990007F906F905F904F903F902F9008958AEACC
:1019A0000E94A70A9093A9038093A8038CEA0E943F
:1019B000A70A9093B1038093B0038EEA0E94A70A0E
:1019C0009093BF038093BE0380EB0E94A70A90937D
:1019D000B5038093B40382EB0E94A70A9093AF03F0
:1019E0008093AE0384EB0E94A70A9093AD0380938B
:1019F000AC0386EB0E94A70A9093AB038093AA03E3
:101A000088EB0E94A70A9093A5038093A4038AEB16
:101A10000E94A70A9093A7038093A6038CEB0E94D1
:101A2000A70A9093B7038093B6038EEB0E94A70A90
:101A30009093B3038093B20308950E9477000E94AD
:101A400015058CE30E9466010E94150580E00E9446
:101A500066010E94150588E10E9466010E94150535
:101A600080E20E9466010E94150580E00E946601E6
:101A70000E9415050E947C0008951F938FEF0E941D
:101A800080000E9415050E948E00182F0E941505E7
:101A9000812F1F9108953F924F925F926F927F9294
:101AA0008F929F92AF92BF92CF92DF92EF92FF926E
:101AB0000F931F935C013B012A010E9477000E9453
:101AC00015058DE30E9466010E9415050E943D0DDB
:101AD000982E0E943D0D082F0E943D0D882E0E94D9
:101AE0003D0DE82E0E943D0D382E0E943D0DC82E62
:101AF0008DE30E9466010E9415050E947C00992DCD
:101B000080E010E0802B912BF50191838083982D4C
:101B100080E0FF248E299F29F30191838083932DF8
:101B200080E0DD248C299D29F201918380831F911F
:101B30000F91FF90EF90DF90CF90BF90AF909F906C
:101B40008F907F906F905F904F903F9008950E948C
:101B500077000E9415058AE30E9466010E94150520
:101B60008DE20E9466010E94150588E00E946601D0
:101B70000E9415050E947C000895FF920F931F9309
:101B8000182F0E9477000E9415058AE30E946601C3
:101B90000E941505812F0E9466010E9415050E9472
:101BA00077008BE30E9466010E9415058FEF0E946B
:101BB00080000E9415050E948E00082F0E941505C6
:101BC00080E00E9480000E9415050E948E00F82E81
:101BD0000E9415050E947C009F2D80E010E0082BDC
:101BE000192BC8011F910F91FF90089508950F932D
:101BF0001F9380915F049091600464E670E00E94FE
:101C0000FF138B0180915F049091600464E670E0A3
:101C10000E94FF13A0E0B0E0BC01CD0120E137E25B
:101C200040E050E00E94E0139B01AC016091C703CB
:101C30007091C80380E090E0620F731F841F951FAE
:101C40001093600400935F042CE330E040E050E028
:101C50000E9448143093C8032093C7038091C403A3
:101C60009091C50364E670E00E94FF138B018091A0
:101C7000C4039091C50364E670E00E94FF13A0E0E6
:101C8000B0E0BC01CD0120E137E240E050E00E942D
:101C9000E0139B01AC016091C0037091C10380E02F
:101CA00090E0620F731F841F951F1093C50300936C
:101CB000C4032CE330E040E050E00E94481430932D
:101CC000C1032093C0031F910F910895662319F457
:101CD00021E030E00EC09C0141E009C0F901E89F1D
:101CE0009001E99F300DF89F300D11244F5F46178A
:101CF000A8F3C90108958091C603089580916104F5
:101D000008952091C2033091C303C9010895209121
:101D10005F0430916004C90108952091C703309198
:101D2000C803C90108952091C4033091C503C901B6
:101D300008952091C0033091C103C9010895CF9344
:101D4000DF9384E993E00E942E11C0E0D0E0FE0111
:101D5000E753FC4F808190E00E9427112196C639FD
:101D6000D105A9F78AE090E00E942711DF91CF9179
:101D70000895CF93DF938091C00085FFFCCF80E072
:101D800090E0FC01E753FC4F1082019686399105E3
:101D9000C1F71092A3031092A2035E9A5F98C0E06D
:101DA000D0E08091C600843211F42AE01FC081E0A7
:101DB00090E00E941C01219681E0C43FD80789F77A
:101DC0005E985F9800D08FE993E0EDB7FEB79283FD
:101DD00081830E9412110F900F9002C08091C60063
:101DE0008091C00087FDFACF80E035C08091C000AF
:101DF00087FFFCCFE091A203F091A3038091C6007E
:101E0000E753FC4F80838091A2039091A303019636
:101E10009093A3038093A2038091A2039091A303C4
:101E20008739910520F01092A3031092A2038091AC
:101E3000C6008A3211F423E002C02430B8F62150E3
:101E4000A9F65E985F9802C08091C6008091C0009C
:101E500087FDFACF81E0DF91CF9108951092C503FD
:101E60001092C4031092C1031092C0031092600438
:101E700010925F041092C8031092C703109261047D
:101E800083E68093C6031092C3031092C2030E949C
:101E9000B90E882309F498C1E0E0F0E040E003C007
:101EA0008C914827F901DF01A753BC4F8C919F010A
:101EB0002F5F3F4F8A32A1F7F901E753FC4F908122
:101EC0009295907FF901E653FC4F80818A3318F494
:101ED0008081805302C080818753892B481711F07D
:101EE00084E061C140E050E04F5F5F4FFA01E7538B
:101EF000FC4F80818C32C1F74F5F5F4FFA01E7538F
:101F0000FC4F80818C32C1F7DA011092C503109228
:101F1000C4031092C1031092C003BA016C5F7F4FDB
:101F20008091C4039091C5039C01F3E0220F331FFD
:101F3000FA95E1F7880F991F280F391F3093C503D1
:101F40002093C4038091C4039091C5034F5F5F4FFA
:101F5000FA01E753FC4F2081C097820F911D9093A7
:101F6000C5038093C40346175707D1F6BD016B5FC5
:101F70007F4FAB0119968091C0039091C1039C01E2
:101F8000F3E0220F331FFA95E1F7880F991F280F0E
:101F9000391F3093C1032093C0038091C0039091F7
:101FA000C1034F5F5F4FFA01E753FC4F2081C09799
:101FB000820F911D9093C1038093C0034A175B0762
:101FC000D1F6AB014C5F5F4F4F5F5F4FFA01E753B4
:101FD000FC4F80818C32C1F74F5F5F4FFA01E753AE
:101FE000FC4F80818C32C1F7DA01109260041092AC
:101FF0005F041092C8031092C703BA016B5F7F4F52
:1020000080915F04909160049C01F3E0220F331FE4
:10201000FA95E1F7880F991F280F391F3093600454
:1020200020935F0480915F04909160044F5F5F4F45
:10203000FA01E753FC4F2081C097820F911D9093C6
:10204000600480935F0446175707D1F6BD016A5FAD
:102050007F4FAB011A968091C7039091C8039C01F2
:10206000F3E0220F331FFA95E1F7880F991F280F2D
:10207000391F3093C8032093C7038091C703909101
:10208000C8034F5F5F4FFA01E753FC4F2081C097B1
:10209000820F911D9093C8038093C7034A175B0773
:1020A000D1F69B012C5F3F4F2F5F3F4FF901E75364
:1020B000FC4F80818C32C1F72F5F3F4FF901E7530E
:1020C000FC4F80818C32C1F72F5F3F4FF901E753FE
:1020D000FC4F80818053809361042F5F3F4FF90153
:1020E000E753FC4F80818C32C1F7A9014F5F5F4FEE
:1020F000FA01E753FC4F808180538093C60380919F
:10210000C603813061F480818C3249F04F5F5F4FAC
:10211000FA01E753FC4F808186528093C6034F5FDC
:102120005F4FFA01E753FC4F80818C32C1F74F5F5C
:102130005F4FFA01E753FC4F80818C32C1F7109258
:10214000C3031092C203BA016B5F7F4F8091C20339
:102150009091C3039C01F3E0220F331FFA95E1F73E
:10216000880F991F280F391F3093C3032093C20390
:102170008091C2039091C3034F5F5F4FFA01E75311
:10218000FC4F2081C097820F911D9093C3038093D1
:10219000C203FA01E653FC4F80818E3219F04617D4
:1021A0005707A1F681E020E030E0F901E753FC4F4A
:1021B00010822F5F3F4F26393105B9F71092A303E4
:1021C0001092A2039091C6000895FC0188279927D8
:1021D000E89421912032E9F3293010F02E30C8F331
:1021E0002B3241F02D3239F4689404C00E940A1158
:1021F000820F911D219120532A30C0F31EF4909537
:1022000081959F4F0895DC0101C06D93415050406E
:10221000E0F708957AE0979F902D879F802D910D8C
:1022200011240895A0E0B0E0E8E1F1E10C9473140A
:10223000FE013596619171918091640490916504DD
:10224000AF010E9463112096E2E00C948F1460911C
:102250006404709165040E94561308950F931F93B0
:10226000CF93DF938C01E0916404F0916504838146
:1022700081FF21C0C0E0D0E00DC0E0916404F09186
:10228000650420853185BF01F9010995892B11F07D
:10229000CFEFDFEFF80181918F01882371F7E09193
:1022A0006404F0916504208531858AE0BF01F9015D
:1022B0000995892B11F0CFEFDFEFCE01DF91CF91A0
:1022C0001F910F910895ABE0B0E0E9E6F1E10C94C5
:1022D00063143C012B015A01FC0117821682838191
:1022E00081FD03C06FEF7FEFC6C19AE0892E1E010A
:1022F0000894211C311CF3012381F20123FD8591F7
:1023000023FF81912F01882309F4B2C1853239F46A
:1023100023FD859123FF81912F01853229F490E0DF
:10232000B3010E945613E7CF982FFF24EE2499247F
:10233000FFE1FF15D0F09B3269F09C3228F4903217
:1023400059F0933291F40EC09D3249F0903369F404
:1023500041E024C052E0F52A84E0F82A28C098E041
:10236000F92A25C0E0E1FE2A22C0F7FC29C0892F06
:1023700080538A3070F4F6FE05C0989C902C11248E
:10238000980E15C0E89CE02C1124E80EF0E2FF2A1C
:102390000EC09E3229F4F6FC6BC140E4F42A07C05B
:1023A0009C3619F450E8F52A02C0983649F4F20137
:1023B00023FD959123FF91912F01992309F0B8CF27
:1023C000892F8554833018F08052833038F444E0EC
:1023D00050E0A40EB51E5FE359830FC0933631F071
:1023E000933779F0933509F056C020C0F50180810C
:1023F000898342E050E0A40EB51E610101E010E0C7
:1024000012C0F501C080D180F6FC03C06FEF7FEFF2
:1024100002C0692D70E042E050E0A40EB51EC60176
:102420000E944B138C015FE7F52214C0F501C080B8
:10243000D180F6FC03C06FEF7FEF02C0692D70E022
:1024400042E050E0A40EB51EC6010E9440138C016C
:1024500050E8F52AF3FE07C01AC080E290E0B3010D
:102460000E945613EA948E2D90E008171907A8F3DE
:102470000EC0F601F7FC8591F7FE81916F0190E0A7
:10248000B3010E945613E110EA9401501040011567
:10249000110579F7EAC0943611F0993669F5F7FE1F
:1024A00008C0F501208131814281538184E090E0B0
:1024B0000AC0F501808191819C01442737FD409538
:1024C000542F82E090E0A80EB91E9FE6F92257FF34
:1024D00009C050954095309521953F4F4F4F5F4F24
:1024E000E0E8FE2ACA01B901A1012AE030E00E9419
:1024F0008213D82ED21840C0953729F41F2D1F7E85
:102500002AE030E01DC01F2D197F9F3661F0903703
:1025100020F4983509F0ACC00FC0903739F09837E7
:1025200009F0A6C004C028E030E00AC0106114FD24
:10253000146020E130E004C014FD166020E132E0B8
:1025400017FF08C0F501608171818281938144E0A9
:1025500050E008C0F50180819181BC0180E090E0ED
:1025600042E050E0A40EB51EA1010E948213D82EB5
:10257000D2188FE7F82EF122F6FE0BC05EEFF5229F
:10258000D91438F4F4FE07C0F2FC05C08FEEF8222F
:1025900002C01D2D01C0192DF4FE0DC0FE01ED0D70
:1025A000F11D8081803319F499EEF92208C01F5F74
:1025B000F2FE05C003C08F2D867809F01F5F0F2D36
:1025C000F3FC14C0F0FE0FC01E1510F09D2C0BC0C4
:1025D0009D2C9E0C911A1E2D06C080E290E0B30146
:1025E0000E9456131F5F1E15C0F304C01E1510F481
:1025F000E11A01C0EE2404FF0FC080E390E0B301B4
:102600000E94561302FF1DC001FD03C088E790E041
:102610000EC088E590E00BC0802F867891F001FF16
:1026200002C08BE201C080E2F7FC8DE290E0B301D2
:102630000E94561306C080E390E0B3010E94561337
:102640009A94D914C0F3DA94F101ED0DF11D808153
:1026500090E0B3010E945613DD20A9F706C080E286
:1026600090E0B3010E945613EA94EE20C1F743CEE6
:10267000F30166817781CB012B96E2E10C947F1404
:10268000FC010590615070400110D8F7809590953D
:102690008E0F9F1F0895FC01615070400190011042
:1026A000D8F7809590958E0F9F1F08950F931F93D5
:1026B000CF93DF938C01EB018B8181FF1BC082FFE5
:1026C0000DC02E813F818C819D812817390764F4CC
:1026D000E881F9810193F983E88306C0E885F985EB
:1026E000802F0995892B31F48E819F8101969F83DC
:1026F0008E8302C00FEF1FEFC801DF91CF911F91B2
:102700000F910895FA01AA27283051F1203181F163
:10271000E8946F936E7F6E5F7F4F8F4F9F4FAF4FE9
:10272000B1E03ED0B4E03CD0670F781F891F9A1FFC
:10273000A11D680F791F8A1F911DA11D6A0F711DB0
:10274000811D911DA11D20D009F468943F912AE0BC
:10275000269F11243019305D3193DEF6CF010895A4
:10276000462F4770405D4193B3E00FD0C9F7F6CFD5
:10277000462F4F70405D4A3318F0495D31FD40529D
:10278000419302D0A9F7EACFB4E0A6959795879533
:1027900077956795BA95C9F7009761057105089512
:1027A0009B01AC010A2E06945795479537952795BE
:1027B000BA95C9F7620F731F841F951FA01D089556
:1027C000629FD001739FF001829FE00DF11D649F15
:1027D000E00DF11D929FF00D839FF00D749FF00DA1
:1027E000659FF00D9927729FB00DE11DF91F639F42
:1027F000B00DE11DF91FBD01CF0111240895AA1BE1
:10280000BB1B51E107C0AA1FBB1FA617B70710F0DB
:10281000A61BB70B881F991F5A95A9F7809590950D
:10282000BC01CD01089597FB092E07260AD077FD3C
:1028300004D0E5DF06D000201AF4709561957F4F33
:102840000895F6F7909581959F4F0895A1E21A2E6D
:10285000AA1BBB1BFD010DC0AA1FBB1FEE1FFF1F44
:10286000A217B307E407F50720F0A21BB30BE40B94
:10287000F50B661F771F881F991F1A9469F76095DB
:102880007095809590959B01AC01BD01CF01089595
:1028900097FB092E05260ED057FD04D0D7DF0AD0AE
:1028A000001C38F450954095309521953F4F4F4F7F
:1028B0005F4F0895F6F790958095709561957F4FDD
:1028C0008F4F9F4F08952F923F924F925F926F923A
:1028D0007F928F929F92AF92BF92CF92DF92EF92B0
:1028E000FF920F931F93CF93DF93CDB7DEB7CA1B31
:1028F000DB0B0FB6F894DEBF0FBECDBF09942A885C
:10290000398848885F846E847D848C849B84AA8403
:10291000B984C884DF80EE80FD800C811B81AA8190
:10292000B981CE0FD11D0FB6F894DEBF0FBECDBF5B
:08293000ED010895F894FFCFBA
:102938000A232C25642C25642C25642C0025642C62
:1029480025642C2564002C256C642C002530336408
:102958002E253034642C00253032642E2530346422
:102968002C0025642C25642C25642C0025642C253A
:10297800642C0025642C00256C642C0025303364FD
:102988002E253034640A00253032642E2530346414
:102998000A0025642C25642C25640A0025642C254E
:1029A8006C640A000A004C413A253034642E002534
:1029B80030346420004C4F3A253035642E004649A7
:1029C800583A2530316420005349563A253031644D
:1029D8002000214E6F4750532100636F6D706C6566
:1029E80074652074696D6564206F7574000A2564C8
:1029F8003A00312920557365722073657474696EC5
:102A08006720313A2025640A0078292045786974BE
:102A18000057616974696E6720666F722063686128
:102A2800726163746572732E2E2E000A7A29205300
:102A38004F5457002073292053657474696E677367
:102A480000206D292054696D65000A742920546599
:102A58006D7065726174757265000A702920507214
:102A6800657373757265000A672920526561642071
:102A7800475053000A63292052656164206D6167DD
:102A88006E65746F6D65746572000A612920526500
:102A9800616420616363656C000A68292043686586
:102AA800636B2068756D6964697479000A6229200E
:102AB800436865636B2062617474657279000A3ECD
:102AC8000054696D65207061737365643A20256CE4
:102AD800640A0054493A2564200054453A25642084
:102AE80000544C4D3A25303464200042473A253092
:102AF80034642000544B3A2530346C64200054432D
:102B08003A253034642000423A2530346C64200081
:102B180042617474206C766C3A253033640A004C38
:102B280069676874206C766C3A253034640A0054FE
:102B3800696D653A20256C642C00543A256C642C28
:102B480000503A256C640A00783D253034642C2006
:102B5800793D253034642C207A3D253034640A00D0
:102B680068756D69646974793D25640A00783D2546
:102B780034642C20793D2534642C207A3D25346436
:102B88000A004C6F6E673A253033642E2530346462
:102B980020004C61743A253032642E25303464208C
:102BA800005349563A25303264204669783A2564FC
:102BB8000A0025640A0000000002000000007401F9
:102BC800000000004750532041727261793A003189
:022BD8002100DA
:00000001FF
